:020000040800F2
:10000000005000208D080008FD030008FF030008D1
:1000100001040008030400080504000800000000B3
:1000200000000000000000000000000007040008BD
:1000300009040008000000000B0400080D0400087B
:10004000D5080008D5080008D5080008D50800081C
:10005000D5080008D5080008D5020008D508000812
:10006000D5080008D5080008D5080008D5080008FC
:10007000D5080008D5080008D5080008D5080008EC
:10008000D5080008D5080008D5080008D5080008DC
:10009000D5080008D5080008D5080008D5080008CC
:1000A000D5080008D5080008D5080008D5080008BC
:1000B00079030008D5080008D5080008D50800080D
:1000C000D5080008D5080008D5080008D50800089C
:1000D000D5080008D5080008D5080008D50800088C
:1000E000D5080008D5080008D50800080000000061
:1000F0000000000000000000000000000000000000
:0C01000000000000000000005FF808F1A3
:10010C0010B5054C237833B9044B13B10448AFF345
:10011C0000800123237010BD10000020000000009F
:10012C002009000808B5034B1BB103490348AFF382
:10013C00008008BD00000000140000202009000809
:10014C00F0B587B0054600F07BFA002401940294C8
:10015C00084F04970126059601A902A800F03CFB64
:10016C002A4623463946304600F0C2FA00F082FA9D
:10017C0007B0F0BD00FC000808B5074B188880B22A
:10018C00031F9BB2032B01D8C0B208BD0420FFF79C
:10019C00D7FF0420F9E700BF00FC000810B500F001
:1001AC007BF9424A936943F010039361404B5968C1
:1001BC0021F470015960596841F400115960D968F3
:1001CC0041F40051D960936943F004039361394CB5
:1001DC00236823F00F032360236843F00803236094
:1001EC00E36843F00103E360236823F0F00323602A
:1001FC00236843F020032360E36823F00203E360E9
:10020C00FFF7BAFF2C4B1870A36813F0010F34D012
:10021C00264A936943F001039361284B996821F0B6
:10022C000F0199609968996003F58063196841F032
:10023C0001011960D96841F00101D960996841F058
:10024C00010199601E4940230B60D36943F00103FF
:10025C00D3614FF0804341F63F729A6240F2E7322D
:10026C00DA62DA6842F00102DA601A6842F00102DE
:10027C001A604FF080530B60FEE700F02BF9044638
:10028C000C4B9B6813F0010FC2D100F023F9001B3B
:10029C0040F6B7339842F3D90420074B1870FFF798
:1002AC004FFF084B01221A70B2E700BF001002404A
:1002BC000010014000080140000000200000014037
:1002CC0000E100E02D00002010B51F4A536943F0F7
:1002DC000103536100F0FEF81C4B1B68C31A41F27A
:1002EC008732934222D90446194B9B6813F0010FB5
:1002FC001CD0184B1B78D3B9174B1B78DBB2062BD1
:10030C001BD9154B04221A70134B1878FFF718FFE2
:10031C000023124A1370124A1370124A1370124AB5
:10032C00D36843F40053D360084B1C6010BD094BD9
:10033C0000221A70054B1860F8E7074A137801334E
:10034C00DBB21370E0E700BF000401403000002076
:10035C00000801402D000020000000202C0000208F
:10036C00340000202E000020001001404FF080428D
:10037C00136923F001031361184B1B787BB1184AE6
:10038C0013780133DBB213701378DBB2042B24D94E
:10039C0000231370134A1370104A13707047114BDB
:1003AC001B78DBB2104A1278B3EB420F0ADA0F4A11
:1003BC00D36883F40053D3600A4A13780133DBB259
:1003CC0013707047094AD36843F40053D360034B4E
:1003DC0001221A70024B00221A7070472E00002066
:1003EC00340000202C0000200000002000100140F0
:1003FC00FEE7FEE7FEE7FEE7FEE770477047704753
:10040C0008B500F05BF808BD82B00E4B9A6942F05B
:10041C0001029A619A6902F001020092009ADA696B
:10042C0042F08052DA61DB6903F080530193019B47
:10043C00054A536823F0E06343F00073536002B045
:10044C00704700BF001002400000014010B5044688
:10045C000E4B1A784FF47A73B3FBF2F30C4A106814
:10046C00B0FBF3F000F092F868B90F2C01D9012021
:10047C000AE0002221464FF0FF3000F077F8054BE0
:10048C001C60002000E0012010BD00BF0100002016
:10049C00080000200400002008B5074A136843F048
:1004AC0010031360032000F04FF80F20FFF7CEFF6E
:1004BC00FFF7AAFF002008BD00200240034A116884
:1004CC00034B1B780B441360704700BF38000020AF
:1004DC0001000020014B1868704700BF3800002055
:1004EC00002808DB0901C9B200F1604000F5614049
:1004FC0080F80013704700F00F000901C9B2014BDE
:10050C001954704714ED00E000B500F00700C0F17D
:10051C00070CBCF1040F28BF4FF0040C031D062B75
:10052C000FD9C31E4FF0FF3E0EFA0CF021EA00016A
:10053C0099400EFA03FE22EA0E0241EA02005DF82F
:10054C0004FB0023EEE70000074AD36823F4E063C2
:10055C001B041B0C000200F4E060034343F0BF6378
:10056C0043F40033D360704700ED00E010B504464F
:10057C00054BD868C0F30220FFF7C6FF01462046A2
:10058C00FFF7AEFF10BD00BF00ED00E00138B0F189
:10059C00807F0BD24FF0E0235861054AF02182F89E
:1005AC0023100020986107221A61704701207047C0
:1005BC0000ED00E0044B0022DA61044A136943F0B9
:1005CC0001031361018070474000002000200240AD
:1005DC00194BDB6813F0100305D0184AD36943F0AC
:1005EC000203D3611023144AD26812F0040F06D010
:1005FC001249CA6942F00102CA6143F004030E4A6F
:10060C00D26912F0010F09D00C49CA6942F00402F8
:10061C00CA610949CA6922F00102CA6140F2011299
:10062C00934202D0044AD3607047034AD36923F043
:10063C000103D361704700BF00200240400000203E
:10064C000A4B1B6913F0800F0BD0084B084A5A60F9
:10065C0002F188325A601B6913F0800F03D100201D
:10066C007047002070470120704700BF00200240F7
:10067C0023016745034A136943F08003136100208B
:10068C00704700BF0020024038B50446FFF722FF38
:10069C000546164BDB6813F0010F0AD0B4F1FF3F8F
:1006AC00F7D024B1FFF716FF401BA042F1D903206D
:1006BC001BE00E4BDB6813F0200F02D00B4B2022FB
:1006CC00DA600A4BDB6813F0100F0BD1074BDB69B8
:1006DC0013F0010F06D1054BDB6813F0040F01D1A9
:1006EC00002002E0FFF774FF012038BD002002401B
:1006FC002DE9F8431E46244B1B7E012B41D00446AA
:10070C000F469046204B01221A764CF25030FFF7E0
:10071C00BBFF034678BB012C08D0022C03D04FF052
:10072C0004091C4607E04FF00209FAE74FF00109F3
:10073C00F7E70134E4B24C451DD22101C1F120028E
:10074C00A1F1200328FA01F106FA02F2114326FA6C
:10075C0003F3194389B207EB4400FFF72BFF4CF26C
:10076C005030FFF791FF094B1D6925F001051D6104
:10077C0003460028DDD0044A002111761846BDE856
:10078C00F8830223FAE700BF40000020002002405B
:10079C00064B0022DA61064B1A6942F004021A6118
:1007AC001A6942F040021A61704700BF40000020F5
:1007BC0000200240064B0022DA61064B1A6942F017
:1007CC0002021A6158611A6942F040021A617047BC
:1007DC004000002000200240264B1B7E012B46D0FF
:1007EC0070B505460E46234B01221A760368022B80
:1007FC0020D04CF25030FFF747FF90BB4FF0FF3347
:10080C003360AC680121EA68AB6803EB8223A34236
:10081C0028D92046FFF7CEFF4CF25030FFF734FFBB
:10082C00154A136923F0020313610146B8B904F5A4
:10083C008064E8E74CF25030FFF726FF08B1012145
:10084C0010E00120FFF7A4FF4CF25030FFF71CFF23
:10085C000146094A136923F00403136102E0346072
:10086C0000E00121034B00221A76084670BD0221DC
:10087C0008467047400000200020024070470000EE
:10088C00FFF7FCFF0B480C490C4A002302E0D4583C
:10089C00C4500433C4188C42F9D3094A094C0023C0
:1008AC0001E013600432A242FBD300F00FF8FFF713
:1008BC0075FC7047000000200C0000204009000867
:1008CC001000002060000020FEE7000070B500263C
:1008DC000C4D0D4C641BA410A64209D100F01AF863
:1008EC0000260A4D0A4C641BA410A64205D170BD0B
:1008FC0055F8043B98470136EEE755F8043B98470A
:10090C000136F2E7380900083809000838090008F0
:10091C003C090008F8B500BFF8BC08BC9E467047FF
:0C092C00F8B500BFF8BC08BC9E46704740
:040938003101000881
:04093C000D010008A1
:0C094000040100001000000000127A000A
:040000050800088D5A
:00000001FF
