:020000040800F2
:1000000000500020F10800086104000863040008A3
:100010006504000867040008690400080000000087
:100020000000000000000000000000006B04000859
:100030006D040008000000006F040008710400084F
:100040003909000839090008390900083909000888
:100050003909000839090008ED02000839090008CB
:100060003909000839090008390900083909000868
:100070003909000839090008390900083909000858
:100080003909000839090008390900083909000848
:100090003909000839090008390900083909000838
:1000A0003909000839090008390900083909000828
:1000B0008D030008390900083909000839090008CA
:1000C0003909000839090008390900083909000808
:1000D00039090008390900083909000839090008F8
:1000E0003909000839090008390900080000000032
:1000F0000000000000000000000000000000000000
:0C01000000000000000000005FF808F1A3
:10010C0070B50F4B0F4DAB42A3EB050607D0002487
:10011C00B61055F8043B01349847A642F9D800F0C4
:10012C0007FC094D094B5E1BAB424FEAA60606D0F5
:10013C00002455F8043B01349847A642F9D870BD09
:10014C00540900085409000854090008580900080B
:10015C0010B5054C237833B9044B13B10448AFF3F5
:10016C0000800123237010BD10000020000000004F
:10017C003C09000808B5034B1BB103490348AFF316
:10018C00008008BD00000000140000203C0900089D
:10019C00F0B587B0054600F085FA0024019402946E
:1001AC00084F04970126059601A902A800F046FB0A
:1001BC002A4623463946304600F0CCFA00F08CFA39
:1001CC0007B0F0BD00FC000808B5094B188880B2D8
:1001DC00072803D8032806D9C0B208BD0420FFF7AE
:1001EC00D7FF0420F9E70420FFF7D2FF0420F4E73F
:1001FC0000FC000808B500F081F9FFF7E5FF324B71
:10020C001870324A936943F010039361304B59686C
:10021C0021F470015960596841F400115960D96892
:10022C0041F40051D960936943F004039361294B65
:10023C00196821F00F011960196841F00801196063
:10024C00D96841F00101D960196821F0F0011960F9
:10025C00196841F020011960D96821F00201D960B8
:10026C00936943F0010393611B4B996821F00F01D3
:10027C0099609968996003F58063196841F00101F0
:10028C001960D96841F00101D960996841F0010108
:10029C009960124940230B60D36943F00103D36189
:1002AC004FF0804341F63F729A6240F2E732DA62D5
:1002BC00DA6842F00102DA601A6842F001021A6050
:1002CC004FF080530B60FEE700000020001002404E
:1002DC0000100140000801400000014000E100E076
:1002EC0008B51E4A536943F0010353611C4B9B68CC
:1002FC0013F0010F06D11B4B01221A701A4B00226E
:10030C001A7008BD174B1B78F3B1174B1B78DBB277
:10031C00022B19D8154B1B78DBB2062B1AD8134AB3
:10032C0013780133DBB21370104B1878FFF730FFE2
:10033C0000230F4A13700F4A13700F4A13700F4AA1
:10034C00D36843F40053D3600023064A1370064A63
:10035C001370D6E7054B04221A70E5E70004014040
:10036C00000801402C0000202D000020000000207F
:10037C00300000202F0000202E0000200010014033
:10038C0008B54FF08042136923F0010313612A4B27
:10039C001B78FBB1294A13780133DBB21370137845
:1003AC00DBB2022B00D808BD0420254B1870FFF7D8
:1003BC00EFFE0023234A1370234A1370234A137051
:1003CC001D4A13701D4A1370214AD36843F400531D
:1003DC00D360E8E71D4B1B787BB11B4A13780133C4
:1003EC00DBB213701378DBB2042BDCD9002313704F
:1003FC00144A1370154A1370D5E7124B1B78DBB2F5
:10040C000F4A1278B3EB420F0ADA114AD36883F41D
:10041C000053D3600B4A13780133DBB21370C2E77D
:10042C000B4AD36843F40053D360084B01221A7073
:10043C00054B00221A70B6E72C0000202D0000207E
:10044C0000000020300000202F0000202E00002093
:10045C0000100140FEE7FEE7FEE7FEE7FEE770470F
:10046C007047704708B500F05BF808BD82B00E4BC2
:10047C009A6942F001029A619A6902F001020092B3
:10048C00009ADA6942F08052DA61DB6903F080533A
:10049C000193019B054A536823F0E06343F000731A
:1004AC00536002B0704700BF0010024000000140D2
:1004BC0010B504460E4B1A784FF47A73B3FBF2F373
:1004CC000C4A1068B0FBF3F000F092F868B90F2CEE
:1004DC0001D901200AE0002221464FF0FF3000F044
:1004EC0077F8054B1C60002000E0012010BD00BF18
:1004FC0001000020080000200400002008B5074A75
:10050C00136843F010031360032000F04FF80F2022
:10051C00FFF7CEFFFFF7AAFF002008BD0020024026
:10052C00034A1168034B1B780B441360704700BFE0
:10053C003400002001000020014B1868704700BFF8
:10054C0034000020002808DB0901C9B200F160402A
:10055C0000F5614080F80013704700F00F000901AE
:10056C00C9B2014B1954704714ED00E000B500F00E
:10057C000700C0F1070CBCF1040F28BF4FF0040CAE
:10058C00031D062B0FD9C31E4FF0FF3E0EFA0CF0C5
:10059C0021EA000199400EFA03FE22EA0E0241EA1A
:1005AC0002005DF804FB0023EEE70000074AD36865
:1005BC0023F4E0631B041B0C000200F4E060034313
:1005CC0043F0BF6343F40033D360704700ED00E0A9
:1005DC0010B50446054BD868C0F30220FFF7C6FFE0
:1005EC0001462046FFF7AEFF10BD00BF00ED00E056
:1005FC000138B0F1807F0BD24FF0E0235861054AEF
:10060C00F02182F823100020986107221A617047AC
:10061C000120704700ED00E0044B0022DA61044A2F
:10062C00136943F001031361018070473800002007
:10063C0000200240194BDB6813F0100305D0184A58
:10064C00D36943F00203D3611023144AD26812F029
:10065C00040F06D01249CA6942F00102CA6143F084
:10066C0004030E4AD26912F0010F09D00C49CA6971
:10067C0042F00402CA610949CA6922F00102CA6146
:10068C0040F20112934202D0044AD3607047034AED
:10069C00D36923F00103D361704700BF00200240EF
:1006AC00380000200A4B1B6913F0800F0BD0084B4D
:1006BC00084A5A6002F188325A601B6913F0800FA5
:1006CC0003D100207047002070470120704700BF05
:1006DC000020024023016745034A136943F080035D
:1006EC0013610020704700BF0020024038B504465B
:1006FC00FFF722FF0546164BDB6813F0010F0AD0FB
:10070C00B4F1FF3FF7D024B1FFF716FF401BA04216
:10071C00F1D903201BE00E4BDB6813F0200F02D045
:10072C000B4B2022DA600A4BDB6813F0100F0BD155
:10073C00074BDB6913F0010F06D1054BDB6813F097
:10074C00040F01D1002002E0FFF774FF012038BD37
:10075C00002002402DE9F8431E46244B1B7E012B42
:10076C0041D004460F469046204B01221A764CF29B
:10077C005030FFF7BBFF034678BB012C08D0022C8E
:10078C0003D04FF004091C4607E04FF00209FAE7CA
:10079C004FF00109F7E70134E4B24C451DD22101B9
:1007AC00C1F12002A1F1200328FA01F106FA02F2AC
:1007BC00114326FA03F3194389B207EB4400FFF700
:1007CC002BFF4CF25030FFF791FF094B1D6925F0C0
:1007DC0001051D6103460028DDD0044A0021117675
:1007EC001846BDE8F8830223FAE700BF3800002062
:1007FC0000200240064B0022DA61064B1A6942F0D7
:10080C0004021A611A6942F040021A61704700BF73
:10081C003800002000200240064B0022DA61064B13
:10082C001A6942F002021A6158611A6942F04002D8
:10083C001A6170473800002000200240264B1B7EB6
:10084C00012B46D070B505460E46234B01221A7675
:10085C000368022B20D04CF25030FFF747FF90BBBF
:10086C004FF0FF333360AC680121EA68AB6803EBEF
:10087C008223A34228D92046FFF7CEFF4CF25030FA
:10088C00FFF734FF154A136923F002031361014685
:10089C00B8B904F58064E8E74CF25030FFF726FF56
:1008AC0008B1012110E00120FFF7A4FF4CF25030F9
:1008BC00FFF71CFF0146094A136923F00403136177
:1008CC0002E0346000E00121034B00221A76084656
:1008DC0070BD0221084670473800002000200240FD
:1008EC0070470000FFF7FCFF0B480C490C4A002333
:1008FC0002E0D458C4500433C4188C42F9D3094ACA
:10090C00094C002301E013600432A242FBD3FFF731
:10091C00F7FBFFF76FFC7047000000200C00002075
:10092C005C0900081000002058000020FEE70000C1
:10093C00F8B500BFF8BC08BC9E467047F8B500BFC0
:08094C00F8BC08BC9E46704790
:040954008101000815
:040958005D01000835
:0C095C00040100001000000000127A00EE
:04000005080008F1F6
:00000001FF
